{
  "_format": "hh-sol-artifact-1",
  "contractName": "MyToken",
  "sourceName": "contracts/MyERC721.sol",
  "abi": [
    {
      "inputs": [],
      "stateMutability": "nonpayable",
      "type": "constructor"
    },
    {
      "inputs": [],
      "name": "AccessControlBadConfirmation",
      "type": "error"
    },
    {
      "inputs": [
        {
          "internalType": "address",
          "name": "account",
          "type": "address"
        },
        {
          "internalType": "bytes32",
          "name": "neededRole",
          "type": "bytes32"
        }
      ],
      "name": "AccessControlUnauthorizedAccount",
      "type": "error"
    },
    {
      "inputs": [
        {
          "internalType": "address",
          "name": "sender",
          "type": "address"
        },
        {
          "internalType": "uint256",
          "name": "tokenId",
          "type": "uint256"
        },
        {
          "internalType": "address",
          "name": "owner",
          "type": "address"
        }
      ],
      "name": "ERC721IncorrectOwner",
      "type": "error"
    },
    {
      "inputs": [
        {
          "internalType": "address",
          "name": "operator",
          "type": "address"
        },
        {
          "internalType": "uint256",
          "name": "tokenId",
          "type": "uint256"
        }
      ],
      "name": "ERC721InsufficientApproval",
      "type": "error"
    },
    {
      "inputs": [
        {
          "internalType": "address",
          "name": "approver",
          "type": "address"
        }
      ],
      "name": "ERC721InvalidApprover",
      "type": "error"
    },
    {
      "inputs": [
        {
          "internalType": "address",
          "name": "operator",
          "type": "address"
        }
      ],
      "name": "ERC721InvalidOperator",
      "type": "error"
    },
    {
      "inputs": [
        {
          "internalType": "address",
          "name": "owner",
          "type": "address"
        }
      ],
      "name": "ERC721InvalidOwner",
      "type": "error"
    },
    {
      "inputs": [
        {
          "internalType": "address",
          "name": "receiver",
          "type": "address"
        }
      ],
      "name": "ERC721InvalidReceiver",
      "type": "error"
    },
    {
      "inputs": [
        {
          "internalType": "address",
          "name": "sender",
          "type": "address"
        }
      ],
      "name": "ERC721InvalidSender",
      "type": "error"
    },
    {
      "inputs": [
        {
          "internalType": "uint256",
          "name": "tokenId",
          "type": "uint256"
        }
      ],
      "name": "ERC721NonexistentToken",
      "type": "error"
    },
    {
      "inputs": [],
      "name": "EnforcedPause",
      "type": "error"
    },
    {
      "inputs": [],
      "name": "ExpectedPause",
      "type": "error"
    },
    {
      "inputs": [
        {
          "internalType": "address",
          "name": "owner",
          "type": "address"
        }
      ],
      "name": "OwnableInvalidOwner",
      "type": "error"
    },
    {
      "inputs": [
        {
          "internalType": "address",
          "name": "account",
          "type": "address"
        }
      ],
      "name": "OwnableUnauthorizedAccount",
      "type": "error"
    },
    {
      "anonymous": false,
      "inputs": [
        {
          "indexed": true,
          "internalType": "address",
          "name": "owner",
          "type": "address"
        },
        {
          "indexed": true,
          "internalType": "address",
          "name": "approved",
          "type": "address"
        },
        {
          "indexed": true,
          "internalType": "uint256",
          "name": "tokenId",
          "type": "uint256"
        }
      ],
      "name": "Approval",
      "type": "event"
    },
    {
      "anonymous": false,
      "inputs": [
        {
          "indexed": true,
          "internalType": "address",
          "name": "owner",
          "type": "address"
        },
        {
          "indexed": true,
          "internalType": "address",
          "name": "operator",
          "type": "address"
        },
        {
          "indexed": false,
          "internalType": "bool",
          "name": "approved",
          "type": "bool"
        }
      ],
      "name": "ApprovalForAll",
      "type": "event"
    },
    {
      "anonymous": false,
      "inputs": [
        {
          "indexed": false,
          "internalType": "uint256",
          "name": "_fromTokenId",
          "type": "uint256"
        },
        {
          "indexed": false,
          "internalType": "uint256",
          "name": "_toTokenId",
          "type": "uint256"
        }
      ],
      "name": "BatchMetadataUpdate",
      "type": "event"
    },
    {
      "anonymous": false,
      "inputs": [
        {
          "indexed": false,
          "internalType": "uint256",
          "name": "_tokenId",
          "type": "uint256"
        }
      ],
      "name": "MetadataUpdate",
      "type": "event"
    },
    {
      "anonymous": false,
      "inputs": [
        {
          "indexed": true,
          "internalType": "address",
          "name": "previousOwner",
          "type": "address"
        },
        {
          "indexed": true,
          "internalType": "address",
          "name": "newOwner",
          "type": "address"
        }
      ],
      "name": "OwnershipTransferred",
      "type": "event"
    },
    {
      "anonymous": false,
      "inputs": [
        {
          "indexed": false,
          "internalType": "address",
          "name": "account",
          "type": "address"
        }
      ],
      "name": "Paused",
      "type": "event"
    },
    {
      "anonymous": false,
      "inputs": [
        {
          "indexed": true,
          "internalType": "bytes32",
          "name": "role",
          "type": "bytes32"
        },
        {
          "indexed": true,
          "internalType": "bytes32",
          "name": "previousAdminRole",
          "type": "bytes32"
        },
        {
          "indexed": true,
          "internalType": "bytes32",
          "name": "newAdminRole",
          "type": "bytes32"
        }
      ],
      "name": "RoleAdminChanged",
      "type": "event"
    },
    {
      "anonymous": false,
      "inputs": [
        {
          "indexed": true,
          "internalType": "bytes32",
          "name": "role",
          "type": "bytes32"
        },
        {
          "indexed": true,
          "internalType": "address",
          "name": "account",
          "type": "address"
        },
        {
          "indexed": true,
          "internalType": "address",
          "name": "sender",
          "type": "address"
        }
      ],
      "name": "RoleGranted",
      "type": "event"
    },
    {
      "anonymous": false,
      "inputs": [
        {
          "indexed": true,
          "internalType": "bytes32",
          "name": "role",
          "type": "bytes32"
        },
        {
          "indexed": true,
          "internalType": "address",
          "name": "account",
          "type": "address"
        },
        {
          "indexed": true,
          "internalType": "address",
          "name": "sender",
          "type": "address"
        }
      ],
      "name": "RoleRevoked",
      "type": "event"
    },
    {
      "anonymous": false,
      "inputs": [
        {
          "indexed": true,
          "internalType": "address",
          "name": "from",
          "type": "address"
        },
        {
          "indexed": true,
          "internalType": "address",
          "name": "to",
          "type": "address"
        },
        {
          "indexed": true,
          "internalType": "uint256",
          "name": "tokenId",
          "type": "uint256"
        }
      ],
      "name": "Transfer",
      "type": "event"
    },
    {
      "anonymous": false,
      "inputs": [
        {
          "indexed": false,
          "internalType": "address",
          "name": "account",
          "type": "address"
        }
      ],
      "name": "Unpaused",
      "type": "event"
    },
    {
      "inputs": [],
      "name": "CONTROLLER_ROLE",
      "outputs": [
        {
          "internalType": "bytes32",
          "name": "",
          "type": "bytes32"
        }
      ],
      "stateMutability": "view",
      "type": "function"
    },
    {
      "inputs": [],
      "name": "DEFAULT_ADMIN_ROLE",
      "outputs": [
        {
          "internalType": "bytes32",
          "name": "",
          "type": "bytes32"
        }
      ],
      "stateMutability": "view",
      "type": "function"
    },
    {
      "inputs": [],
      "name": "MINTER_ROLE",
      "outputs": [
        {
          "internalType": "bytes32",
          "name": "",
          "type": "bytes32"
        }
      ],
      "stateMutability": "view",
      "type": "function"
    },
    {
      "inputs": [
        {
          "internalType": "address",
          "name": "to",
          "type": "address"
        },
        {
          "internalType": "uint256",
          "name": "tokenId",
          "type": "uint256"
        }
      ],
      "name": "approve",
      "outputs": [],
      "stateMutability": "nonpayable",
      "type": "function"
    },
    {
      "inputs": [
        {
          "internalType": "address",
          "name": "owner",
          "type": "address"
        }
      ],
      "name": "balanceOf",
      "outputs": [
        {
          "internalType": "uint256",
          "name": "",
          "type": "uint256"
        }
      ],
      "stateMutability": "view",
      "type": "function"
    },
    {
      "inputs": [
        {
          "internalType": "uint256",
          "name": "tokenId",
          "type": "uint256"
        }
      ],
      "name": "burn",
      "outputs": [],
      "stateMutability": "nonpayable",
      "type": "function"
    },
    {
      "inputs": [
        {
          "internalType": "uint256",
          "name": "tokenId",
          "type": "uint256"
        }
      ],
      "name": "getApproved",
      "outputs": [
        {
          "internalType": "address",
          "name": "",
          "type": "address"
        }
      ],
      "stateMutability": "view",
      "type": "function"
    },
    {
      "inputs": [
        {
          "internalType": "bytes32",
          "name": "role",
          "type": "bytes32"
        }
      ],
      "name": "getRoleAdmin",
      "outputs": [
        {
          "internalType": "bytes32",
          "name": "",
          "type": "bytes32"
        }
      ],
      "stateMutability": "view",
      "type": "function"
    },
    {
      "inputs": [
        {
          "internalType": "bytes32",
          "name": "role",
          "type": "bytes32"
        },
        {
          "internalType": "address",
          "name": "account",
          "type": "address"
        }
      ],
      "name": "grantRole",
      "outputs": [],
      "stateMutability": "nonpayable",
      "type": "function"
    },
    {
      "inputs": [
        {
          "internalType": "bytes32",
          "name": "role",
          "type": "bytes32"
        },
        {
          "internalType": "address",
          "name": "account",
          "type": "address"
        }
      ],
      "name": "hasRole",
      "outputs": [
        {
          "internalType": "bool",
          "name": "",
          "type": "bool"
        }
      ],
      "stateMutability": "view",
      "type": "function"
    },
    {
      "inputs": [
        {
          "internalType": "address",
          "name": "owner",
          "type": "address"
        },
        {
          "internalType": "address",
          "name": "operator",
          "type": "address"
        }
      ],
      "name": "isApprovedForAll",
      "outputs": [
        {
          "internalType": "bool",
          "name": "",
          "type": "bool"
        }
      ],
      "stateMutability": "view",
      "type": "function"
    },
    {
      "inputs": [],
      "name": "name",
      "outputs": [
        {
          "internalType": "string",
          "name": "",
          "type": "string"
        }
      ],
      "stateMutability": "view",
      "type": "function"
    },
    {
      "inputs": [],
      "name": "owner",
      "outputs": [
        {
          "internalType": "address",
          "name": "",
          "type": "address"
        }
      ],
      "stateMutability": "view",
      "type": "function"
    },
    {
      "inputs": [
        {
          "internalType": "uint256",
          "name": "tokenId",
          "type": "uint256"
        }
      ],
      "name": "ownerOf",
      "outputs": [
        {
          "internalType": "address",
          "name": "",
          "type": "address"
        }
      ],
      "stateMutability": "view",
      "type": "function"
    },
    {
      "inputs": [],
      "name": "pause",
      "outputs": [],
      "stateMutability": "nonpayable",
      "type": "function"
    },
    {
      "inputs": [],
      "name": "paused",
      "outputs": [
        {
          "internalType": "bool",
          "name": "",
          "type": "bool"
        }
      ],
      "stateMutability": "view",
      "type": "function"
    },
    {
      "inputs": [],
      "name": "renounceOwnership",
      "outputs": [],
      "stateMutability": "nonpayable",
      "type": "function"
    },
    {
      "inputs": [
        {
          "internalType": "bytes32",
          "name": "role",
          "type": "bytes32"
        },
        {
          "internalType": "address",
          "name": "callerConfirmation",
          "type": "address"
        }
      ],
      "name": "renounceRole",
      "outputs": [],
      "stateMutability": "nonpayable",
      "type": "function"
    },
    {
      "inputs": [
        {
          "internalType": "bytes32",
          "name": "role",
          "type": "bytes32"
        },
        {
          "internalType": "address",
          "name": "account",
          "type": "address"
        }
      ],
      "name": "revokeRole",
      "outputs": [],
      "stateMutability": "nonpayable",
      "type": "function"
    },
    {
      "inputs": [
        {
          "internalType": "address",
          "name": "to",
          "type": "address"
        },
        {
          "internalType": "string",
          "name": "uri",
          "type": "string"
        }
      ],
      "name": "safeMint",
      "outputs": [],
      "stateMutability": "nonpayable",
      "type": "function"
    },
    {
      "inputs": [
        {
          "internalType": "address",
          "name": "from",
          "type": "address"
        },
        {
          "internalType": "address",
          "name": "to",
          "type": "address"
        },
        {
          "internalType": "uint256",
          "name": "tokenId",
          "type": "uint256"
        }
      ],
      "name": "safeTransferFrom",
      "outputs": [],
      "stateMutability": "nonpayable",
      "type": "function"
    },
    {
      "inputs": [
        {
          "internalType": "address",
          "name": "from",
          "type": "address"
        },
        {
          "internalType": "address",
          "name": "to",
          "type": "address"
        },
        {
          "internalType": "uint256",
          "name": "tokenId",
          "type": "uint256"
        },
        {
          "internalType": "bytes",
          "name": "data",
          "type": "bytes"
        }
      ],
      "name": "safeTransferFrom",
      "outputs": [],
      "stateMutability": "nonpayable",
      "type": "function"
    },
    {
      "inputs": [
        {
          "internalType": "address",
          "name": "operator",
          "type": "address"
        },
        {
          "internalType": "bool",
          "name": "approved",
          "type": "bool"
        }
      ],
      "name": "setApprovalForAll",
      "outputs": [],
      "stateMutability": "nonpayable",
      "type": "function"
    },
    {
      "inputs": [
        {
          "internalType": "bytes4",
          "name": "interfaceId",
          "type": "bytes4"
        }
      ],
      "name": "supportsInterface",
      "outputs": [
        {
          "internalType": "bool",
          "name": "",
          "type": "bool"
        }
      ],
      "stateMutability": "view",
      "type": "function"
    },
    {
      "inputs": [],
      "name": "symbol",
      "outputs": [
        {
          "internalType": "string",
          "name": "",
          "type": "string"
        }
      ],
      "stateMutability": "view",
      "type": "function"
    },
    {
      "inputs": [
        {
          "internalType": "uint256",
          "name": "tokenId",
          "type": "uint256"
        }
      ],
      "name": "tokenURI",
      "outputs": [
        {
          "internalType": "string",
          "name": "",
          "type": "string"
        }
      ],
      "stateMutability": "view",
      "type": "function"
    },
    {
      "inputs": [
        {
          "internalType": "address",
          "name": "from",
          "type": "address"
        },
        {
          "internalType": "address",
          "name": "to",
          "type": "address"
        },
        {
          "internalType": "uint256",
          "name": "tokenId",
          "type": "uint256"
        }
      ],
      "name": "transferFrom",
      "outputs": [],
      "stateMutability": "nonpayable",
      "type": "function"
    },
    {
      "inputs": [
        {
          "internalType": "address",
          "name": "newOwner",
          "type": "address"
        }
      ],
      "name": "transferOwnership",
      "outputs": [],
      "stateMutability": "nonpayable",
      "type": "function"
    },
    {
      "inputs": [],
      "name": "unpause",
      "outputs": [],
      "stateMutability": "nonpayable",
      "type": "function"
    }
  ],
  "bytecode": "0x60806040523480156200001157600080fd5b50336040518060400160405280600781526020016626bcaa37b5b2b760c91b815250604051806040016040528060038152602001624d544b60e81b8152508160009081620000609190620002cf565b5060016200006f8282620002cf565b50506007805460ff19169055506001600160a01b038116620000ab57604051631e4fbdf760e01b81526000600482015260240160405180910390fd5b620000b68162000125565b50620000c460003362000177565b50620000f17f7b765e0e932d348852a6f810bfa1ab891e259123f02db8cdcde614c5702233573362000177565b506200011e7f9f2df0fed2c77648de5860a4cc508cd0818c85b8b8a1ab4ceeef8d981c8956a63362000177565b506200039b565b600980546001600160a01b038381166001600160a01b0319831681179093556040519116919082907f8be0079c531659141344cd1fd0a4f28419497f9722a3daafe3b4186f6b6457e090600090a35050565b60008281526008602090815260408083206001600160a01b038516845290915281205460ff16620002205760008381526008602090815260408083206001600160a01b03861684529091529020805460ff19166001179055620001d73390565b6001600160a01b0316826001600160a01b0316847f2f8788117e7eff1d82e926ec794901d17c78024a50270940304540a733656f0d60405160405180910390a450600162000224565b5060005b92915050565b634e487b7160e01b600052604160045260246000fd5b600181811c908216806200025557607f821691505b6020821081036200027657634e487b7160e01b600052602260045260246000fd5b50919050565b601f821115620002ca57600081815260208120601f850160051c81016020861015620002a55750805b601f850160051c820191505b81811015620002c657828155600101620002b1565b5050505b505050565b81516001600160401b03811115620002eb57620002eb6200022a565b6200030381620002fc845462000240565b846200027c565b602080601f8311600181146200033b5760008415620003225750858301515b600019600386901b1c1916600185901b178555620002c6565b600085815260208120601f198616915b828110156200036c578886015182559484019460019091019084016200034b565b50858210156200038b5787850151600019600388901b60f8161c191681555b5050505050600190811b01905550565b6119ae80620003ab6000396000f3fe608060405234801561001057600080fd5b50600436106101cf5760003560e01c806370a0823111610104578063a22cb465116100a2578063d539139311610071578063d5391393146103d1578063d547741f146103f8578063e985e9c51461040b578063f2fde38b1461041e57600080fd5b8063a22cb46514610385578063b88d4fde14610398578063c87b56dd146103ab578063d204c45e146103be57600080fd5b80638da5cb5b116100de5780638da5cb5b1461035157806391d148541461036257806395d89b4114610375578063a217fddf1461037d57600080fd5b806370a082311461032e578063715018a6146103415780638456cb591461034957600080fd5b80632f2ff15d1161017157806342842e0e1161014b57806342842e0e146102ea57806342966c68146102fd5780635c975abb146103105780636352211e1461031b57600080fd5b80632f2ff15d146102bc57806336568abe146102cf5780633f4ba83a146102e257600080fd5b8063092c5b3b116101ad578063092c5b3b1461023c578063095ea7b31461027157806323b872dd14610286578063248a9ca31461029957600080fd5b806301ffc9a7146101d457806306fdde03146101fc578063081812fc14610211575b600080fd5b6101e76101e236600461144e565b610431565b60405190151581526020015b60405180910390f35b610204610442565b6040516101f391906114bb565b61022461021f3660046114ce565b6104d4565b6040516001600160a01b0390911681526020016101f3565b6102637f7b765e0e932d348852a6f810bfa1ab891e259123f02db8cdcde614c57022335781565b6040519081526020016101f3565b61028461027f366004611503565b6104fd565b005b61028461029436600461152d565b61050c565b6102636102a73660046114ce565b60009081526008602052604090206001015490565b6102846102ca366004611569565b61059c565b6102846102dd366004611569565b6105c1565b6102846105f9565b6102846102f836600461152d565b61062e565b61028461030b3660046114ce565b610649565b60075460ff166101e7565b6102246103293660046114ce565b610655565b61026361033c366004611595565b610660565b6102846106a8565b6102846106bc565b6009546001600160a01b0316610224565b6101e7610370366004611569565b6106ee565b610204610719565b610263600081565b6102846103933660046115b0565b610728565b6102846103a6366004611678565b610733565b6102046103b93660046114ce565b61074a565b6102846103cc3660046116f4565b610755565b6102637f9f2df0fed2c77648de5860a4cc508cd0818c85b8b8a1ab4ceeef8d981c8956a681565b610284610406366004611569565b6107aa565b6101e7610419366004611756565b6107cf565b61028461042c366004611595565b6107fd565b600061043c82610838565b92915050565b60606000805461045190611780565b80601f016020809104026020016040519081016040528092919081815260200182805461047d90611780565b80156104ca5780601f1061049f576101008083540402835291602001916104ca565b820191906000526020600020905b8154815290600101906020018083116104ad57829003601f168201915b5050505050905090565b60006104df8261085d565b506000828152600460205260409020546001600160a01b031661043c565b610508828233610896565b5050565b6001600160a01b03821661053b57604051633250574960e11b8152600060048201526024015b60405180910390fd5b60006105488383336108a3565b9050836001600160a01b0316816001600160a01b031614610596576040516364283d7b60e01b81526001600160a01b0380861660048301526024820184905282166044820152606401610532565b50505050565b6000828152600860205260409020600101546105b7816108b8565b61059683836108c2565b6001600160a01b03811633146105ea5760405163334bd91960e11b815260040160405180910390fd5b6105f48282610956565b505050565b7f7b765e0e932d348852a6f810bfa1ab891e259123f02db8cdcde614c570223357610623816108b8565b61062b6109c3565b50565b6105f483838360405180602001604052806000815250610733565b610508600082336108a3565b600061043c8261085d565b60006001600160a01b03821661068c576040516322718ad960e21b815260006004820152602401610532565b506001600160a01b031660009081526003602052604090205490565b6106b0610a15565b6106ba6000610a42565b565b7f7b765e0e932d348852a6f810bfa1ab891e259123f02db8cdcde614c5702233576106e6816108b8565b61062b610a94565b60009182526008602090815260408084206001600160a01b0393909316845291905290205460ff1690565b60606001805461045190611780565b610508338383610ad1565b61073e84848461050c565b61059684848484610b70565b606061043c82610c99565b7f9f2df0fed2c77648de5860a4cc508cd0818c85b8b8a1ab4ceeef8d981c8956a661077f816108b8565b600a805460009182610790836117ba565b9190505590506107a08482610da2565b6105968184610dbc565b6000828152600860205260409020600101546107c5816108b8565b6105968383610956565b6001600160a01b03918216600090815260056020908152604080832093909416825291909152205460ff1690565b610805610a15565b6001600160a01b03811661082f57604051631e4fbdf760e01b815260006004820152602401610532565b61062b81610a42565b60006001600160e01b03198216637965db0b60e01b148061043c575061043c82610e0c565b6000818152600260205260408120546001600160a01b03168061043c57604051637e27328960e01b815260048101849052602401610532565b6105f48383836001610e31565b60006108b0848484610f37565b949350505050565b61062b8133610f4c565b60006108ce83836106ee565b61094e5760008381526008602090815260408083206001600160a01b03861684529091529020805460ff191660011790556109063390565b6001600160a01b0316826001600160a01b0316847f2f8788117e7eff1d82e926ec794901d17c78024a50270940304540a733656f0d60405160405180910390a450600161043c565b50600061043c565b600061096283836106ee565b1561094e5760008381526008602090815260408083206001600160a01b0386168085529252808320805460ff1916905551339286917ff6391f5c32d9c69d2a47ea670b442974b53935d1edc7fd64eb21e047a839171b9190a450600161043c565b6109cb610f85565b6007805460ff191690557f5db9ee0a495bf2e6ff9c91a7834c1ba4fdd244a5e8aa4e537bd38aeae4b073aa335b6040516001600160a01b03909116815260200160405180910390a1565b6009546001600160a01b031633146106ba5760405163118cdaa760e01b8152336004820152602401610532565b600980546001600160a01b038381166001600160a01b0319831681179093556040519116919082907f8be0079c531659141344cd1fd0a4f28419497f9722a3daafe3b4186f6b6457e090600090a35050565b610a9c610fa8565b6007805460ff191660011790557f62e78cea01bee320cd4e420270b5ea74000d11b0c9f74754ebdbfc544b05a2586109f83390565b6001600160a01b038216610b0357604051630b61174360e31b81526001600160a01b0383166004820152602401610532565b6001600160a01b03838116600081815260056020908152604080832094871680845294825291829020805460ff191686151590811790915591519182527f17307eab39ab6107e8899845ad3d59bd9653f200f220920489ca2b5937696c31910160405180910390a3505050565b6001600160a01b0383163b1561059657604051630a85bd0160e11b81526001600160a01b0384169063150b7a0290610bb29033908890879087906004016117e1565b6020604051808303816000875af1925050508015610bed575060408051601f3d908101601f19168201909252610bea9181019061181e565b60015b610c56573d808015610c1b576040519150601f19603f3d011682016040523d82523d6000602084013e610c20565b606091505b508051600003610c4e57604051633250574960e11b81526001600160a01b0385166004820152602401610532565b805181602001fd5b6001600160e01b03198116630a85bd0160e11b14610c9257604051633250574960e11b81526001600160a01b0385166004820152602401610532565b5050505050565b6060610ca48261085d565b5060008281526006602052604081208054610cbe90611780565b80601f0160208091040260200160405190810160405280929190818152602001828054610cea90611780565b8015610d375780601f10610d0c57610100808354040283529160200191610d37565b820191906000526020600020905b815481529060010190602001808311610d1a57829003601f168201915b505050505090506000610d5560408051602081019091526000815290565b90508051600003610d67575092915050565b815115610d99578082604051602001610d8192919061183b565b60405160208183030381529060405292505050919050565b6108b084610fcc565b610508828260405180602001604052806000815250611041565b6000828152600660205260409020610dd482826118b8565b506040518281527ff8e1a15aba9398e019f0b49df1a4fde98ee17ae345cb5f6b5e2c27f5033e8ce79060200160405180910390a15050565b60006001600160e01b03198216632483248360e11b148061043c575061043c82611058565b8080610e4557506001600160a01b03821615155b15610f07576000610e558461085d565b90506001600160a01b03831615801590610e815750826001600160a01b0316816001600160a01b031614155b8015610e945750610e9281846107cf565b155b15610ebd5760405163a9fbf51f60e01b81526001600160a01b0384166004820152602401610532565b8115610f055783856001600160a01b0316826001600160a01b03167f8c5be1e5ebec7d5bd14f71427d1e84f3dd0314c0f7b2291e5b200ac8c7c3b92560405160405180910390a45b505b5050600090815260046020526040902080546001600160a01b0319166001600160a01b0392909216919091179055565b6000610f41610fa8565b6108b08484846110a8565b610f5682826106ee565b6105085760405163e2517d3f60e01b81526001600160a01b038216600482015260248101839052604401610532565b60075460ff166106ba57604051638dfc202b60e01b815260040160405180910390fd5b60075460ff16156106ba5760405163d93c066560e01b815260040160405180910390fd5b6060610fd78261085d565b506000610fef60408051602081019091526000815290565b9050600081511161100f576040518060200160405280600081525061103a565b80611019846111a1565b60405160200161102a92919061183b565b6040516020818303038152906040525b9392505050565b61104b8383611234565b6105f46000848484610b70565b60006001600160e01b031982166380ac58cd60e01b148061108957506001600160e01b03198216635b5e139f60e01b145b8061043c57506301ffc9a760e01b6001600160e01b031983161461043c565b6000828152600260205260408120546001600160a01b03908116908316156110d5576110d5818486611299565b6001600160a01b03811615611113576110f2600085600080610e31565b6001600160a01b038116600090815260036020526040902080546000190190555b6001600160a01b03851615611142576001600160a01b0385166000908152600360205260409020805460010190555b60008481526002602052604080822080546001600160a01b0319166001600160a01b0389811691821790925591518793918516917fddf252ad1be2c89b69c2b068fc378daa952ba7f163c4a11628f55a4df523b3ef91a4949350505050565b606060006111ae836112fd565b600101905060008167ffffffffffffffff8111156111ce576111ce6115ec565b6040519080825280601f01601f1916602001820160405280156111f8576020820181803683370190505b5090508181016020015b600019016f181899199a1a9b1b9c1cb0b131b232b360811b600a86061a8153600a850494508461120257509392505050565b6001600160a01b03821661125e57604051633250574960e11b815260006004820152602401610532565b600061126c838360006108a3565b90506001600160a01b038116156105f4576040516339e3563760e11b815260006004820152602401610532565b6112a48383836113d5565b6105f4576001600160a01b0383166112d257604051637e27328960e01b815260048101829052602401610532565b60405163177e802f60e01b81526001600160a01b038316600482015260248101829052604401610532565b60008072184f03e93ff9f4daa797ed6e38ed64bf6a1f0160401b831061133c5772184f03e93ff9f4daa797ed6e38ed64bf6a1f0160401b830492506040015b6d04ee2d6d415b85acef81000000008310611368576d04ee2d6d415b85acef8100000000830492506020015b662386f26fc10000831061138657662386f26fc10000830492506010015b6305f5e100831061139e576305f5e100830492506008015b61271083106113b257612710830492506004015b606483106113c4576064830492506002015b600a831061043c5760010192915050565b60006001600160a01b038316158015906108b05750826001600160a01b0316846001600160a01b0316148061140f575061140f84846107cf565b806108b05750506000908152600460205260409020546001600160a01b03908116911614919050565b6001600160e01b03198116811461062b57600080fd5b60006020828403121561146057600080fd5b813561103a81611438565b60005b8381101561148657818101518382015260200161146e565b50506000910152565b600081518084526114a781602086016020860161146b565b601f01601f19169290920160200192915050565b60208152600061103a602083018461148f565b6000602082840312156114e057600080fd5b5035919050565b80356001600160a01b03811681146114fe57600080fd5b919050565b6000806040838503121561151657600080fd5b61151f836114e7565b946020939093013593505050565b60008060006060848603121561154257600080fd5b61154b846114e7565b9250611559602085016114e7565b9150604084013590509250925092565b6000806040838503121561157c57600080fd5b8235915061158c602084016114e7565b90509250929050565b6000602082840312156115a757600080fd5b61103a826114e7565b600080604083850312156115c357600080fd5b6115cc836114e7565b9150602083013580151581146115e157600080fd5b809150509250929050565b634e487b7160e01b600052604160045260246000fd5b600067ffffffffffffffff8084111561161d5761161d6115ec565b604051601f8501601f19908116603f01168101908282118183101715611645576116456115ec565b8160405280935085815286868601111561165e57600080fd5b858560208301376000602087830101525050509392505050565b6000806000806080858703121561168e57600080fd5b611697856114e7565b93506116a5602086016114e7565b925060408501359150606085013567ffffffffffffffff8111156116c857600080fd5b8501601f810187136116d957600080fd5b6116e887823560208401611602565b91505092959194509250565b6000806040838503121561170757600080fd5b611710836114e7565b9150602083013567ffffffffffffffff81111561172c57600080fd5b8301601f8101851361173d57600080fd5b61174c85823560208401611602565b9150509250929050565b6000806040838503121561176957600080fd5b611772836114e7565b915061158c602084016114e7565b600181811c9082168061179457607f821691505b6020821081036117b457634e487b7160e01b600052602260045260246000fd5b50919050565b6000600182016117da57634e487b7160e01b600052601160045260246000fd5b5060010190565b6001600160a01b03858116825284166020820152604081018390526080606082018190526000906118149083018461148f565b9695505050505050565b60006020828403121561183057600080fd5b815161103a81611438565b6000835161184d81846020880161146b565b83519083019061186181836020880161146b565b01949350505050565b601f8211156105f457600081815260208120601f850160051c810160208610156118915750805b601f850160051c820191505b818110156118b05782815560010161189d565b505050505050565b815167ffffffffffffffff8111156118d2576118d26115ec565b6118e6816118e08454611780565b8461186a565b602080601f83116001811461191b57600084156119035750858301515b600019600386901b1c1916600185901b1785556118b0565b600085815260208120601f198616915b8281101561194a5788860151825594840194600190910190840161192b565b50858210156119685787850151600019600388901b60f8161c191681555b5050505050600190811b0190555056fea264697066735822122094e0abaa63c9551a1dfec1eed25303623cdec6eb0b35b1080db6cfe652c0d1d664736f6c63430008140033",
  "linkReferences": {},
  "deployedLinkReferences": {}
}